:020000040800F2
:100000002004002001010008CD040008C5040008F8
:10001000C904000875010008A70E000800000000D0
:100020000000000000000000000000008D06000835
:10003000510200080000000075050008790700085B
:100040001B0100081B0100081B0100081B01000820
:100050001B0100081B0100081B0100081B01000810
:100060001B0100081B0100081B0100081B01000800
:100070001B0100081B0100081B0100081B010008F0
:100080001B0100081B0100081B0100081B010008E0
:100090001B0100081B0100081B0100081B010008D0
:1000A0001B0100081B0100081B0100081B010008C0
:1000B0001B0100081B0100081B0100081B010008B0
:1000C0001B0100081B0100081B0100081B010008A0
:1000D0001B010008610B00081B0100081B01000840
:1000E000650200081B0100081B010008DFF80CD0A6
:1000F00000F02EF800480047951100082004002069
:100100000648804706480047FEE7FEE7FEE7FEE7B1
:10011000FEE7FEE7FEE7FEE7FEE7FEE77D070008F5
:10012000ED00000830B50B460146002020220124D6
:1001300009E021FA02F59D4205D303FA02F5491BB5
:1001400004FA02F52844151EA2F10102F1DC30BDCB
:10015000064C074D06E0E06840F0010394E8070014
:1001600098471034AC42F6D3FFF7C4FF9815000847
:10017000B815000800BFFEE710B504460021084886
:1001800000F093FC2146064800F091FC0021044851
:1001900000F08FFC2146024800F08DFC10BD0000ED
:1001A0000008004010B504462146084800F07DFCD8
:1001B0000021064800F07BFC2146044800F079FC51
:1001C0000021024800F077FC10BD0000000800404C
:1001D00010B504462146084800F067FC0021064897
:1001E00000F065FC0021044800F063FC2146024851
:1001F00000F061FC10BD00000008004010B504468E
:100200000021084800F051FC2146064800F04FFC50
:100210002146044800F04DFC0021024800F04BFC50
:1002200010BD00000008004010B50021074800F094
:100230003CFC0021054800F03AFC0021034800F096
:1002400038FC0021014800F036FC10BD00080040D9
:1002500070474FF0E020006920F004004FF0E021EB
:100260000861704710B54FF4806000F015F8012860
:1002700002D1800200F00AF84FF4006000F00CF8A0
:10028000012802D1C00200F001F810BD0149086048
:100290007047000014040140014600200022074B73
:1002A0001B6803EA0102054B14331B680B4013B1B2
:1002B0000AB1012000E00020704700000004014066
:1002C000002123498279002A3AD00A46126803683D
:1002D0009A430B461A600A1D126803689A430B1D65
:1002E0001A60027911440A6803681A430A60184ABE
:1002F0000832126803689A43154B08331A601A1DB6
:10030000126803689A43124B0C331A604279102A20
:100310000ED11A1F126803681A430D4B08331A6076
:100320001A1D126803681A43094B0C331A600DE05A
:100330000749427911440A6803681A430A6005E0D4
:10034000027911440A6803689A430A607047000002
:100350000004014030B500228B071C0F0F2303FA65
:1003600004F20B4B8C1053F824309343084C8D103F
:1003700044F8253023468C1053F824308C07240F82
:1003800000FA04F42343024C8D1044F8253030BDAC
:10039000080001402DE9F04102460025002600201A
:1003A00000230024002791F803C00CF00F0591F8FA
:1003B00003C00CF0100CBCF1000F03D091F802C088
:1003C0004CEA050591F800C0BCF1000F31D014686B
:1003D00000202BE04FF0010C0CFA00F3B1F800C044
:1003E0000CEA03069E4220D183004FF00F0C0CFA5A
:1003F00003F7BC4305FA03FC4CEA040491F803C07C
:10040000BCF1280F06D14FF0010C0CFA00FCC2F829
:1004100014C00AE091F803C0BCF1480F05D14FF0B9
:10042000010C0CFA00FCC2F810C0401C0828D1D303
:100430001460B1F800C0BCF1FF0F34DD5468002037
:100440002EE000F1080C4FF0010808FA0CF3B1F8A7
:1004500000C00CEA03069E4221D183004FF00F0C2E
:100460000CFA03F7BC4305FA03FC4CEA040491F8C8
:1004700003C0BCF1280F05D100F1080C08FA0CF8F4
:10048000C2F8148091F803C0BCF1480F07D100F105
:10049000080C4FF0010808FA0CF8C2F81080401C54
:1004A0000828CED35460BDE8F0810246002093684E
:1004B0000B400BB1012000E0002070474161704704
:1004C0000161704700BFFEE700BFFEE77047000014
:1004D00070B5002100230F22C47804B3154C2468A2
:1004E00004F4E064C4F5E064210AC1F10403CA40E5
:1004F000447804FA03F184781440214309010E4C36
:100500000678A155047804F01F050124AC40057855
:100510006D11AD0005F1E025C5F8004109E0047852
:1005200004F01F050124AC40044D0678761145F80F
:10053000264070BD0CED00E000E400E080E100E04A
:1005400008B50121082000F027F82020ADF80000B0
:1005500010208DF8030003208DF80200694604483E
:10056000FFF718FF20210248FFF7AAFF08BD00008F
:10057000000C01407047000029B1064AD2690243CD
:10058000044BDA6104E0034AD2698243014BDA6129
:10059000704700000010024029B1064A92690243E8
:1005A000044B9A6104E0034A92698243014B9A61C9
:1005B000704700000010024030B5002100220024E6
:1005C00000232D4D6D6805F00C0121B1042905D0E3
:1005D000082923D105E0294D056022E0274D05605B
:1005E0001FE0254D6D6805F47012234D6D6805F40C
:1005F0008034022505EB92421CB9214D554305601C
:100600000BE01D4D6D6805F400351DB11C4D5543C3
:10061000056002E0194D5543056002E0174D056085
:1006200000BF00BF144D6D6805F0F0010909154DBC
:100630006B5C0568DD4045600F4D6D6805F4E06159
:10064000090A104D6B5C4568DD4085600A4D6D6898
:1006500005F46051C90A0B4D6B5C4568DD40C5600F
:10066000054D6D6805F44041890B074D6B5CC5680D
:10067000B5FBF3F5056130BD0010024000127A00B1
:1006800000093D000000002010000020704710B558
:1006900000F002F810BD00000CB5002001900090A1
:1006A0003348006840F480303149086000BF30486A
:1006B000006800F4003000900198401C0190009800
:1006C00018B90198B0F5A06FF1D12948006800F47D
:1006D000003010B10120009001E00020009000984F
:1006E000012843D12348006840F0100021490860E8
:1006F0000846006820F0030008600846006840F0E3
:10070000020008601A484068194948600846406875
:1007100048600846406840F4806048600846406889
:1007200020F47C1048600846406840F4E8104860B7
:100730000846006840F08070086000BF0C48006800
:1007400000F000700028F9D00948406820F003004C
:10075000074948600846406840F00200486000BF12
:100760000348406800F00C000828F9D10CBD0000D7
:1007700000100240002002407047000010B51348EE
:10078000006840F0010011490860084640681049BF
:1007900008400E494860084600680E4908400B4969
:1007A00008600846006820F4802008600846406819
:1007B00020F4FE0048604FF41F008860FFF767FFD9
:1007C0004FF000600449086010BD000000100240B6
:1007D0000000FFF8FFFFF6FE08ED00E021B10288FF
:1007E00042F00102028004E002884FF6FE731A40D4
:1007F0000280704770B5002400220023058C4FF65C
:10080000FE7635400584028C8388048B4FF68F7505
:100810002C40B51E2C400D882C43751E2A400D8996
:100820002A434D882A43144DA8420BD0134DA842A9
:1008300008D0134DA84205D0124DA84202D0124D47
:10084000A84213D14FF6F7752A404D892A434FF637
:10085000FB752A408D882A434FF6FF652B404FF6E3
:10086000FF552B408D892B43CD892B4383800483F7
:10087000CD888586028470BD002C01400034014083
:100880000040014000440140004801400A46002168
:10089000018B4FF6F7731940114301837047000035
:1008A00070B5002400220023058C4FF6EF7635400A
:1008B0000584028C8388048B48F6FF752C404FF624
:1008C000FF452C400D884FF6FF7606EA05252C43A0
:1008D0004FF6DF752A400D8906EA05152A434D8833
:1008E00006EA05152A43154DA84202D0144DA84228
:1008F0001DD14FF67F752A404D894FF6FF7606EAE7
:1009000005152A434FF6BF752A408D8806EA05155E
:100910002A434FF6FF352B404FF2FF752B408D8950
:1009200006EA85052B43CD8906EA85052B4383809E
:100930000483CD880587028470BD0000002C01402F
:10094000003401400A460021018B4FF2FF73194029
:100950004FF6FF7303EA0223194301837047000037
:1009600070B5002400220023058C4FF6FF66354049
:100970000584028C8388848B4FF68F752C404FF64C
:10098000FC752C400D882C434FF6FF552A400D89ED
:100990004FF6FF7606EA05252A434D8806EA052527
:1009A0002A43154DA84202D0144DA8421DD14FF242
:1009B000FF752A404D894FF6FF7606EA05252A4342
:1009C0004FF6FF352A408D8806EA05252A434EF664
:1009D000FF752B404DF6FF752B408D8906EA0515F6
:1009E0002B43CD8906EA05152B4383808483CD886C
:1009F0008587028470BD0000002C01400034014056
:100A00000A460021818B4FF6F77319401143818309
:100A10007047000070B5002200230024058C4EF6BC
:100A2000FF7635400584038C8488828B48F6FF75F9
:100A30002A404FF6FF452A400D884FF6FF7606EA1A
:100A400005252A434DF6FF752B400D8906EA05352D
:100A50002B434D8806EA05352B430B4DA84202D0A7
:100A60000A4DA84208D14BF6FF752C408D894FF6F0
:100A7000FF7606EA85152C4384808283CD88A0F812
:100A80004050038470BD0000002C01400034014040
:100A90000A460021818B4FF2FF7319404FF6FF7316
:100AA00003EA0223194381837047818670470187D7
:100AB000704781877047A0F8401070470022028875
:100AC0001D4B98420ED01D4B98420BD0B0F1804F79
:100AD00008D01B4B984205D01A4B984202D01A4BB3
:100AE000984204D14FF68F731A404B881A43174B24
:100AF000984207D0164B984204D04FF6FF431A4055
:100B0000CB881A4302808B8883850B8803850A4B28
:100B100098420BD0094B984208D00E4B984205D012
:100B20000D4B984202D00D4B984201D10B7A0386AF
:100B30000123838270470000002C014000340140F3
:100B40000004004000080040000C0040001000407D
:100B500000140040004001400044014000480140B2
:100B600010B540F225512C4800F0D8F801284DD19D
:100B7000294800F08FF90446A4F141000B283ED229
:100B8000DFE800F0282F363D3D3D060D22141B0006
:100B90004B20FFF707FB01202049087035E04B2070
:100BA000FFF72CFB01201D4908702EE04B20FFF7BA
:100BB0000FFB01201949087027E04B20FFF7DCFAF2
:100BC00001201649087020E0FFF72EFB0120134991
:100BD00008701AE001201249087000200F490870BF
:100BE00013E002200E49087000200C4908700CE048
:100BF00003200B49087000200849087005E0002018
:100C0000074908700549087000BF00BF40F2255130
:100C1000014800F05BF810BD0038014015000020CD
:100C20001400002000B587B001210420FFF7B4FCB8
:100C300001210846FFF7B0FC01218803FFF7ACFC57
:100C40004FF40070ADF8180003208DF81A0018203A
:100C50008DF81B0006A91B48FFF79CFB4FF4806032
:100C6000ADF8180004208DF81B0006A91548FFF701
:100C700091FB4FF4E13002900020ADF80C00ADF88C
:100C80001000ADF80E00ADF814000C20ADF8120005
:100C900002A90D4800F092F8012240F225510A48BD
:100CA00000F066F825208DF8040001208DF807007B
:100CB00001A8FFF70DFC0121034800F016F807B06A
:100CC00000BD0000000801400038014010B50022BE
:100CD000002340F66A14A14200D100BF0A12012489
:100CE0009440A3B2DC43048010BD21B1828942F458
:100CF0000052828104E082894DF6FF731A4082819E
:100D0000704702460020B1F5007F00D100BF138874
:100D10000B400BB1012000E00020704770B5024687
:100D2000002400230025002040F66A16B14200D1BD
:100D300000BFC1F3421501F01F03012606FA03F3B9
:100D4000012D02D19689334006E0022D02D1168A88
:100D5000334001E0968A33400C12012606FA04F46F
:100D60001688344013B10CB1012000E0002070BDA2
:100D7000F0B50346002400260025002040F66A173F
:100D8000B94200D100BF1846C1F3421401F01F065A
:100D9000012707FA06F5012C01D10C3004E0022CE2
:100DA00001D1103000E014301AB107682F430760FA
:100DB00002E00768AF430760F0BD00002DE9F0478F
:100DC00086B005460E460024A24600BFA146002775
:100DD000B08900B100BF2F462C8A4CF6FF7004404A
:100DE000F08804432C82AC894EF6F3100440B0889E
:100DF00031890843718908430443AC81AC8A4FF6BA
:100E0000FF400440B0890443AC8201A8FFF7D4FB43
:100E10001F48874202D1DDF810A001E0DDF80CA0E8
:100E2000A88900F4004040B10AEBCA0000EB0A10A8
:100E300031684900B0FBF1F807E00AEBCA0000EBAB
:100E40000A1031688900B0FBF1F86420B8FBF0F0BB
:100E500004012009642101FB1089A88900F40040E5
:100E600040B1322000EBC900B0FBF1F000F0070008
:100E7000044308E0322000EB09106421B0FBF1F0DC
:100E800000F00F0004432C8106B0BDE8F08700009D
:100E90000038014001468888C0F308007047C1F35C
:100EA00008028280704700BFFEE7000010484FF044
:100EB000E0214861012088610846006940F0010096
:100EC000086100BF4FF0E020006900F4803030B9C5
:100ED0004FF0E020006900F001000028F2D14FF04F
:100EE000E020006920F001004FF0E0210861704728
:100EF0007F4919000FB4054B10B503A9044A0298A5
:100F000000F018F810BC5DF814FB00005111000847
:100F10001800002002E008C8121F08C1002AFAD1F8
:100F200070477047002001E001C1121F002AFBD169
:100F3000704700002DE9FF4F89B09B46044600250D
:100F400006E025280BD05A460B999047641C6D1C6F
:100F500020780028F5D10DB02846BDE8F08F002795
:100F6000B8460122474900E0074314F8013F203BFF
:100F700002FA03F00842F7D120782E2819D114F88C
:100F8000010F47F004072A280ED06FF02F022078B7
:100F9000A0F1300109290CD808EB880102EB4101CE
:100FA00000EB0108641CF2E70A98641C50F8048BFB
:100FB0000A9020780028CED0642808D0692806D06E
:100FC00075281ED05A460B9990476D1C58E00A9917
:100FD0004FF00A0901C90A91002802DA40422D2186
:100FE00002E0390504D52B218DF82010012103E002
:100FF000F90704D02021F7E78A4608AE0DE000216A
:10100000FAE70A994FF00A0901C90A91F7E7494638
:10101000FFF788F8303106F8011D0028F7D1ADEB55
:10102000060000F12009780701D44FF00108C845F7
:1010300002DDA8EB090000E000208046002706E062
:1010400008A85A46C05D0B9990476D1C7F1C5745F8
:10105000F6DB04E030205A460B9990476D1CB8F13E
:101060000001A8F10108F5DC05E016F8010B5A466D
:101070000B9990476D1CB9F10001A9F10109F4DC4D
:10108000641C65E70928010000B5034603E04FF43E
:101090007A7000F005F81800A3F10103F7D100BD44
:1010A00000B5024603E0FFF701FF1448121A134887
:1010B0008242F8D802EBC2004FF0E02148610120E3
:1010C00088610846006940F00100086100BF4FF0E8
:1010D000E020006900F4803030B94FF0E020006972
:1010E00000F001000028F2D14FF0E020006920F06C
:1010F00001004FF0E021086100BD000047CF020071
:1011000010B5FFF791F8C820FFF7BEFF00F064F9B3
:101110000446082C03D24B20FFF72EF807E00A2CD8
:1011200003D94E20FFF73EF801E0FFF77DF8214696
:1011300003A0FFF7DFFE6420FFF7A6FF10BD00004D
:1011400064697374616E6365202564200A00000081
:1011500070B504460D46E1B20548FFF7A0FE00BF9A
:1011600040210348FFF7CDFD0128F9D1204670BD8D
:101170000038014010B500F0CFF8FFF76AF8FFF72C
:1011800051FD00F03FF800F081F800F057F900F051
:1011900089F910BDFFF7EEFF23E04FF4FA70FFF777
:1011A00073FF10480078E0B90F48007830B101288B
:1011B00005D0022807D0032811D10AE010E00BA0C7
:1011C000FFF798FE0CE00BA0FFF794FE00F08AF901
:1011D00006E00AA0FFF78EFEFFF792FF00E000BFD7
:1011E00000BFDAE71500002014000020E981BFE904
:1011F0009A9C0A00E5BEAAE8BFB90A00E8B79FE9D1
:101200009A8F0A001FB501210C20FFF7C5F90121B3
:101210000846FFF7C1F94FF48060ADF80C00482094
:101220008DF80F0003A91748FFF7B4F84FF40060DA
:10123000ADF80C0048208DF80F0003A91248FFF705
:10124000A9F84FF44060019000208DF808000C20B0
:101250008DF8090001208DF80A0001A8FFF730F889
:101260000A210120FFF776F80B210020FFF772F822
:1012700028208DF8000001208DF803006846FFF754
:1012800027F91FBD000C01400008014000B589B0DE
:1012900001210920FFF780F901210220FFF76CF9F5
:1012A0000220ADF8200003208DF8220018208DF8D0
:1012B000230008A91648FFF76DF8C720ADF81800FD
:1012C00041F61F40ADF814000020ADF81A00ADF84B
:1012D000160005A90F48FFF7F1FB6020ADF80400E8
:1012E0000020ADF80C000120ADF806000020ADF89C
:1012F0000A0001A90748FFF78DFB08210548FFF701
:10130000C7FB01210348FFF769FA09B000BD0000DF
:10131000000C01400004004000B589B00121092003
:10132000FFF73AF901210420FFF726F94FF4707016
:10133000ADF8200018208DF8230003208DF822003E
:1013400008A92348FFF726F86320ADF8180000200D
:10135000ADF81600ADF81A0041F61F40ADF81400C4
:1013600005A91C48FFF7AAFB6020ADF80400012086
:10137000ADF806000020ADF80A00ADF80C0001A998
:101380001448FFF737FA01A91248FFF789FA01A9B3
:101390001048FFF7E5FA01A90E48FFF73BFB0821CB
:1013A0000C48FFF773FA08210A48FFF7CBFA082127
:1013B0000848FFF725FB08210648FFF769FB0121D4
:1013C0000448FFF70BFAFFF7BBF809B000BD0000B7
:1013D000000C01400008004070B500BF00BF00F0E5
:1013E0004FF800F00BF805464FF4AA70684344F636
:1013F0002061B0FBF1F4204670BD000010B5002460
:1014000000BF4FF480510C48FFF74FF80028F8D088
:1014100008E0641C45F6E930844200D910BD012083
:10142000FFF73EFE4FF480510348FFF73EF80128D6
:10143000EFD02046F2E70000000C014008B5012182
:101440000820FFF7A9F84FF40060ADF80000102065
:101450008DF8030003208DF8020069460748FEF767
:1014600099FF4FF48050ADF8000048208DF803003C
:1014700069460248FEF78EFF08BD0000000C0140DF
:1014800010B54FF400610648FFF71AF80A20FFF77D
:1014900007FE4FF400610248FFF710F810BD00008E
:1014A000000C014008B501210C20FFF775F84FF43E
:1014B0006040ADF8000048208DF8030069460748F9
:1014C000FEF768FF4FF48050ADF8000048208DF81B
:1014D000030069460248FEF75DFF08BD000C0140AD
:1014E000000801402DE9F0414FF400412848FEF783
:1014F000DCFF04464FF480412548FEF7D6FF054641
:101500004FF400512248FEF7D0FF06464FF48051B9
:101510002048FEF7CAFF074644B9012D06D1012E27
:1015200004D11FB95520FEF73DFE2BE0012C08D158
:101530003DB9012E05D1012F03D15520FEF75EFEE6
:1015400020E0012C08D1012D06D12EB9012F03D1A5
:101550005520FEF73DFE15E044B93DB9012E05D1F9
:10156000012F03D15520FEF749FE0BE0012C07D1D6
:10157000012D05D126B91FB95520FEF729FE01E03E
:10158000FEF752FE6420FFF77FFDBDE8F08100000A
:10159000000C014000080140B815000800000020C0
:1015A0001C000000140F0008D41500081C000020C7
:1015B00004040000240F00080000000001020304DE
:1015C00001020304060708090204060800000000DF
:0415D0000000000017
:0400000508000101ED
:00000001FF
