:020000040800F2
:1000000018040020010100080D03000893020008F5
:100010009702000849010008E506000800000000FA
:1000200000000000000000000000000005040008BF
:100030004D010008000000000F030008F104000853
:100040001B0100081B0100081B0100081B01000820
:100050001B0100081B0100081B0100081B01000810
:100060001B0100081B0100081B0100081B01000800
:100070001B0100081B0100081B0100081B010008F0
:100080001B0100081B0100081B0100081B010008E0
:100090001B0100081B0100081B0100081B010008D0
:1000A0001B0100081B0100081B0100081B010008C0
:1000B0001B0100081B0100081B0100081B010008B0
:1000C0001B0100081B0100081B0100081B010008A0
:1000D0001B0100081B0100081B0100081B01000890
:1000E0001B0100081B0100081B010008DFF80CD0F1
:1000F00000F018F8004800471D0800081804002008
:100100000648804706480047FEE7FEE7FEE7FEE7B1
:10011000FEE7FEE7FEE7FEE7FEE7FEE7F504000880
:10012000ED000008064C074D06E0E06840F00103D2
:1001300094E8070098471034AC42F6D3FFF7DAFF93
:10014000B4080008D408000800BFFEE770474FF06D
:10015000E020006920F004004FF0E02108617047C2
:100160002DE9F0410246002500260020002300244E
:10017000002791F803C00CF00F0591F803C00CF0B4
:10018000100CBCF1000F03D091F802C04CEA050539
:1001900091F800C0BCF1000F31D0146800202BE0B2
:1001A0004FF0010C0CFA00F3B1F800C00CEA0306A2
:1001B0009E4220D183004FF00F0C0CFA03F7BC4392
:1001C00005FA03FC4CEA040491F803C0BCF1280FC3
:1001D00006D14FF0010C0CFA00FCC2F814C00AE082
:1001E00091F803C0BCF1480F05D14FF0010C0CFA97
:1001F00000FCC2F810C0401C0828D1D31460B1F82C
:1002000000C0BCF1FF0F34DD546800202EE000F187
:10021000080C4FF0010808FA0CF3B1F800C00CEA22
:1002200003069E4221D183004FF00F0C0CFA03F716
:10023000BC4305FA03FC4CEA040491F803C0BCF18A
:10024000280F05D100F1080C08FA0CF8C2F8148048
:1002500091F803C0BCF1480F07D100F1080C4FF032
:10026000010808FA0CF8C2F81080401C0828CED308
:100270005460BDE8F0810246002093680B400BB14A
:10028000012000E0002070470AB1016100E04161F7
:10029000704700BFFEE700BFFEE7000008B5012180
:1002A000082000F035F80121042000F031F84FF467
:1002B0007870ADF8000003208DF8020010208DF852
:1002C000030069460F48FFF74BFF4FF48060ADF81D
:1002D000000003208DF8020004208DF80300694619
:1002E0000848FFF73DFF4FF40060ADF80000032021
:1002F0008DF8020004208DF8030069460248FFF7DC
:100300002FFF08BD000C01400008014070477047F6
:1003100029B1064A92690243044B9A6104E0034AF8
:1003200092698243014B9A617047000000100240BD
:1003300030B500210022002400232D4D6D6805F00A
:100340000C0121B1042905D0082923D105E0294D4C
:10035000056022E0274D05601FE0254D6D6805F41E
:100360007012234D6D6805F48034022505EB92422E
:100370001CB9214D554305600BE01D4D6D6805F41A
:1003800000351DB11C4D5543056002E0194D554324
:10039000056002E0174D056000BF00BF144D6D6899
:1003A00005F0F0010909154D6B5C0568DD404560FD
:1003B0000F4D6D6805F4E061090A104D6B5C4568EE
:1003C000DD4085600A4D6D6805F46051C90A0B4D2A
:1003D0006B5C4568DD40C560054D6D6805F44041C6
:1003E000890B074D6B5CC568B5FBF3F5056130BD46
:1003F0000010024000127A0000093D0000000020B9
:1004000010000020704710B500F002F810BD000089
:100410000CB50020019000903348006840F4803013
:100420003149086000BF3048006800F40030009097
:100430000198401C0190009818B90198B0F5A06F80
:10044000F1D12948006800F4003010B1012000907B
:1004500001E0002000900098012843D12348006863
:1004600040F01000214908600846006820F00300B1
:1004700008600846006840F0020008601A484068BA
:10048000194948600846406848600846406840F49A
:10049000806048600846406820F47C104860084648
:1004A000406840F4E81048600846006840F08070FA
:1004B000086000BF0C48006800F000700028F9D008
:1004C0000948406820F00300074948600846406832
:1004D00040F00200486000BF0348406800F00C0094
:1004E0000828F9D10CBD0000001002400020024095
:1004F0007047000010B51348006840F00100114932
:10050000086008464068104908400E49486008469F
:1005100000680E4908400B4908600846006820F44E
:10052000802008600846406820F4FE0048604FF4D0
:100530001F008860FFF767FF4FF000600449086004
:1005400010BD0000001002400000FFF8FFFFF6FEA3
:1005500008ED00E000B585B0012144F20500FFF789
:10056000D7FE4FF40070ADF8000003208DF80200B4
:1005700018208DF8030069461348FFF7F1FD4FF48A
:100580008060ADF8000004208DF8030069460E4835
:10059000FFF7E6FD4FF4165001900020ADF808007B
:1005A000ADF80A00ADF80C00ADF810000C20ADF865
:1005B0000E0001A9054800F025F80121034800F0CC
:1005C00007F805B000BD00000008014000380140F8
:1005D00021B1828942F40052828104E082894DF681
:1005E000FF731A408281704702460020B1F5007FF8
:1005F00000D100BF13880B400BB1012000E00020A8
:10060000704700002DE9F04786B005460E460024ED
:10061000A24600BFA1460027B08900B100BF2F4607
:100620002C8A4CF6FF700440F08804432C82AC897D
:100630004EF6F3100440B0883189084371890843AD
:100640000443AC81AC8A4FF6FF400440B0890443B8
:10065000AC8201A8FFF76CFE1F48874202D1DDF88B
:1006600010A001E0DDF80CA0A88900F4004040B122
:100670000AEBCA0000EB0A1031684900B0FBF1F840
:1006800007E00AEBCA0000EB0A1031688900B0FBF2
:10069000F1F86420B8FBF0F004012009642101FBAB
:1006A0001089A88900F4004040B1322000EBC90055
:1006B000B0FBF1F000F00700044308E0322000EB4B
:1006C00009106421B0FBF1F000F00F0004432C810D
:1006D00006B0BDE8F087000000380140C1F3080211
:1006E0008280704700BFFEE710484FF0E02148616C
:1006F000012088610846006940F00100086100BFE0
:100700004FF0E020006900F4803030B94FF0E02075
:10071000006900F001000028F2D14FF0E0200069EC
:1007200020F001004FF0E021086170477F49190077
:10073000014A024900F013B8F9070008140000202C
:1007400002E008C8121F08C1002AFAD1704770479A
:10075000002001E001C1121F002AFBD170472DE9E2
:10076000F04116460F460446002503E03946B047DF
:10077000641C6D1C20780028F8D12846BDE8F08163
:1007800000B5034603E04FF47A7000F005F8180056
:10079000A3F10103F7D100BD00B5024603E0FFF766
:1007A000A3FF1448121A13488242F8D802EBC20081
:1007B0004FF0E0214861012088610846006940F05F
:1007C0000100086100BF4FF0E020006900F48030B4
:1007D00030B94FF0E020006900F001000028F2D1AC
:1007E0004FF0E020006920F001004FF0E0210861A7
:1007F00000BD000047CF020070B504460D46E1B2CF
:100800000548FFF76BFF00BF40210348FFF7ECFEF0
:100810000128F9D1204670BD00380140FFF73EFDA8
:10082000FFF795FCFFF796FE012220211348FFF702
:100830002BFD21E04FF480611048FFF71CFD18B933
:100840000FA0FFF775FF02E010A0FFF771FF4FF454
:10085000FA70FFF795FF4FF400610F48FFF70BFDAB
:1008600018B90EA0FFF764FF02E00FA0FFF760FFCA
:100870004FF4FA70FFF784FFDCE70000000C014042
:100880006C6566743A300D0A000000006C65667491
:100890003A20310D0A0000000008014072696768C3
:1008A000743A20300D0A000072696768743A310D9D
:1008B0000A000000D4080008000000201800000012
:1008C00040070008EC0800081800002000040000A1
:1008D00050070008000000000102030401020304A5
:0C08E000060708090204060800000000DA
:0400000508000101ED
:00000001FF
