:020000040800F2
:10000000180400200101000849050008090500083E
:100010000D05000849010008230E0008000000003B
:100020000000000000000000000000008107000840
:10003000710200080000000069060008910800082D
:100040001B0100081B0100081B0100081B01000820
:100050001B0100081B0100081B0100081B01000810
:100060001B0100081B0100081B0100081B01000800
:100070001B0100081B0100081B0100081B010008F0
:100080001B0100081B0100081B0100081B010008E0
:100090001B0100081B0100081B0100081B010008D0
:1000A0001B0100081B0100081B0100081B010008C0
:1000B0001B0100081B0100081B0100081B010008B0
:1000C0001B0100081B0100081B0100081B010008A0
:1000D0001B010008310B00081B0100081B01000870
:1000E000850200081B0100081B010008DFF80CD086
:1000F00000F018F800480047610F000818040020BD
:100100000648804706480047FEE7FEE7FEE7FEE7B1
:10011000FEE7FEE7FEE7FEE7FEE7FEE795080008DC
:10012000ED000008064C074D06E0E06840F00103D2
:1001300094E8070098471034AC42F6D3FFF7DAFF93
:100140000C1000082C10000800BFFEE710B5044694
:1001500000224FF48071094800F0D1F901225102C8
:10016000064800F0CCF900224021044800F0C7F90D
:1001700001228021014800F0C2F910BD000C0140AD
:1001800010B50446204600F071FB012211020A4816
:1001900000F0B5F900224FF40071074800F0AFF904
:1001A00001224021044800F0AAF9002280210248DF
:1001B00000F0A5F910BD0000000C014010B5044688
:1001C000204600F053FB012211020A4800F097F983
:1001D00000224FF40071074800F091F900224021FD
:1001E000044800F08CF901228021024800F087F9D0
:1001F00010BD0000000C014010B50446204600F080
:1002000035FB00224FF48071094800F078F9012293
:100210005102074800F073F901224021044800F020
:100220006EF900228021024800F069F910BD00003B
:10023000000C014010B5002000F018FB00224FF424
:1002400080710A4800F05BF900224FF40071074802
:1002500000F055F900224021044800F050F9002236
:100260008021024800F04BF910BD0000000C014055
:1002700070474FF0E020006920F004004FF0E021CB
:100280000861704710B54FF4806000F02FF8012826
:1002900006D10EA000F0C8FD4FF4806000F020F8F9
:1002A0004FF4006000F022F801280DD109A000F001
:1002B000BBFD00BF4021094800F0E1FC0028F9D057
:1002C0004FF4006000F00CF810BD0000E5B7A6E8A0
:1002D000BEB90A00E58FB3E8BEB90000003801409E
:1002E00001490860704700001404014001460020E5
:1002F0000022074B1B6803EA0102054B14331B68FD
:100300000B4013B10AB1012000E00020704700004B
:1003100000040140002123498279002A3AD00A468C
:10032000126803689A430B461A600A1D1268036834
:100330009A430B1D1A60027911440A6803681A4334
:100340000A60184A0832126803689A43154B08334A
:100350001A601A1D126803689A43124B0C331A6014
:100360004279102A0ED11A1F126803681A430D4BE6
:1003700008331A601A1D126803681A43094B0C33BC
:100380001A600DE00749427911440A6803681A436C
:100390000A6005E0027911440A6803689A430A601A
:1003A000704700000004014030B500228B071C0F8D
:1003B0000F2303FA04F20B4B8C1053F824309343B1
:1003C000084C8D1044F8253023468C1053F8243007
:1003D0008C07240F00FA04F42343024C8D1044F8D8
:1003E000253030BD080001402DE9F04102460025CE
:1003F0000026002000230024002791F803C00CF001
:100400000F0591F803C00CF0100CBCF1000F03D0E5
:1004100091F802C04CEA050591F800C0BCF1000F4C
:1004200031D0146800202BE04FF0010C0CFA00F3DF
:10043000B1F800C00CEA03069E4220D183004FF0C1
:100440000F0C0CFA03F7BC4305FA03FC4CEA040456
:1004500091F803C0BCF1280F06D14FF0010C0CFA43
:1004600000FCC2F814C00AE091F803C0BCF1480FC8
:1004700005D14FF0010C0CFA00FCC2F810C0401C72
:100480000828D1D31460B1F800C0BCF1FF0F34DDEF
:10049000546800202EE000F1080C4FF0010808FA23
:1004A0000CF3B1F800C00CEA03069E4221D1830090
:1004B0004FF00F0C0CFA03F7BC4305FA03FC4CEAAF
:1004C000040491F803C0BCF1280F05D100F1080C19
:1004D00008FA0CF8C2F8148091F803C0BCF1480F78
:1004E00007D100F1080C4FF0010808FA0CF8C2F827
:1004F0001080401C0828CED35460BDE8F0810AB1BA
:10050000016100E04161704700BFFEE700BFFEE708
:1005100008B50121082000F0B9F80121042000F0FD
:10052000B5F84FF47870ADF8000003208DF80200A4
:1005300010208DF8030069460248FFF755FF00F0D0
:100540003DF808BD000C01407047000070B5002167
:1005500000230F22C47804B3154C246804F4E0642B
:10056000C4F5E064210AC1F10403CA40447804FAE6
:1005700003F184781440214309010E4C0678A155FB
:10058000047804F01F050124AC4005786D11AD001E
:1005900005F1E025C5F8004109E0047804F01F05E5
:1005A0000124AC40044D0678761145F8264070BD14
:1005B0000CED00E000E400E080E100E000B589B06F
:1005C0000121082000F062F80121084600F05EF8E1
:1005D0000121042000F04AF84FF4A070ADF820008B
:1005E00018208DF8230003208DF8220008A91C484C
:1005F000FFF7FAFE4720ADF8140040F2E730ADF8FF
:1006000018000020ADF81A00ADF8160005A915482D
:1006100000F03CFA6020ADF804000120ADF80600BF
:100620000020ADF80A00ADF80C0001A90D4800F05B
:1006300079F901A90B4800F0CBF90821094800F02D
:10064000BDF90821074800F013FA0121054800F020
:1006500051F90121034800F059F909B000BD00002B
:10066000000C0140000800407047000029B1064A14
:10067000D2690243044BDA6104E0034AD26982433F
:10068000014BDA61704700000010024029B1064AB0
:1006900092690243044B9A6104E0034A92698243DF
:1006A000014B9A61704700000010024030B50021F4
:1006B0000022002400232D4D6D6805F00C0121B1AE
:1006C000042905D0082923D105E0294D056022E041
:1006D000274D05601FE0254D6D6805F47012234D10
:1006E0006D6805F48034022505EB92421CB9214D5A
:1006F000554305600BE01D4D6D6805F400351DB1D7
:100700001C4D5543056002E0194D5543056002E05C
:10071000174D056000BF00BF144D6D6805F0F00176
:100720000909154D6B5C0568DD4045600F4D6D682E
:1007300005F4E061090A104D6B5C4568DD40856099
:100740000A4D6D6805F46051C90A0B4D6B5C456834
:10075000DD40C560054D6D6805F44041890B074DCE
:100760006B5CC568B5FBF3F5056130BD0010024058
:1007700000127A0000093D00000000201000002057
:10078000704710B500F002F810BD00000CB5002055
:10079000019000903348006840F48030314908608F
:1007A00000BF3048006800F4003000900198401C01
:1007B0000190009818B90198B0F5A06FF1D12948BF
:1007C000006800F4003010B10120009001E000202A
:1007D00000900098012843D12348006840F01000A1
:1007E000214908600846006820F0030008600846B8
:1007F000006840F0020008601A48406819494860E3
:100800000846406848600846406840F48060486098
:100810000846406820F47C1048600846406840F470
:10082000E81048600846006840F08070086000BF2B
:100830000C48006800F000700028F9D009484068B2
:1008400020F00300074948600846406840F0020075
:10085000486000BF0348406800F00C000828F9D148
:100860000CBD0000001002400020024010B50446FC
:10087000B4F57A7F01DB40F2E7342146034800F00B
:1008800000F92146014800F0FEF810BD00080040C4
:100890007047000010B51348006840F0010011498E
:1008A000086008464068104908400E4948600846FC
:1008B00000680E4908400B4908600846006820F4AB
:1008C000802008600846406820F4FE0048604FF42D
:1008D0001F008860FFF755FF4FF000600449086073
:1008E00010BD0000001002400000FFF8FFFFF6FE00
:1008F00008ED00E021B1028842F08002028004E0AD
:1009000002884FF67F731A400280704721B1028837
:1009100042F00102028004E002884FF6FE731A40A2
:100920000280704770B5002400220023058C4FF62A
:10093000FE7635400584028C8388048B4FF68F75D4
:100940002C40B51E2C400D882C43751E2A400D8965
:100950002A434D882A43144DA8420BD0134DA84278
:1009600008D0134DA84205D0124DA84202D0124D16
:10097000A84213D14FF6F7752A404D892A434FF606
:10098000FB752A408D882A434FF6FF652B404FF6B2
:10099000FF552B408D892B43CD892B4383800483C6
:1009A000CD888586028470BD002C01400034014052
:1009B0000040014000440140004801400A46002137
:1009C000018B4FF6F7731940114301837047000004
:1009D00070B5002400220023058C4FF6FF663540D9
:1009E0000584028C8388848B4FF68F752C404FF6DC
:1009F000FC752C400D882C434FF6FF552A400D897D
:100A00004FF6FF7606EA05252A434D8806EA0525B6
:100A10002A43154DA84202D0144DA8421DD14FF2D1
:100A2000FF752A404D894FF6FF7606EA05252A43D1
:100A30004FF6FF352A408D8806EA05252A434EF6F3
:100A4000FF752B404DF6FF752B408D8906EA051585
:100A50002B43CD8906EA05152B4383808483CD88FB
:100A60008587028470BD0000002C014000340140E5
:100A70000A460021818B4FF6F77319401143818399
:100A80007047818670478187704700000022028886
:100A90001D4B98420ED01D4B98420BD0B0F1804FA9
:100AA00008D01B4B984205D01A4B984202D01A4BE3
:100AB000984204D14FF68F731A404B881A43174B54
:100AC000984207D0164B984204D04FF6FF431A4085
:100AD000CB881A4302808B8883850B8803850A4B59
:100AE00098420BD0094B984208D00E4B984205D043
:100AF0000D4B984202D00D4B984201D10B7A0386E0
:100B00000123838270470000002C01400034014023
:100B10000004004000080040000C004000100040AD
:100B200000140040004001400044014000480140E2
:100B300010B540F225511A4800F0AEF801282ED128
:100B4000174800F065F90446214616A000F06CF93C
:100B5000A4F1470005281BD2DFE800F00308170DB9
:100B600012004FF46170FFF70BFB12E04FF461705D
:100B7000FFF724FB0DE04FF46170FFF73DFB08E049
:100B80004FF46170FFF7E2FA03E0FFF753FB00E078
:100B900000BF00BF40F22551014800F055F810BDDC
:100BA0000038014064617461203D2025630A000023
:100BB00000B587B0012144F20500FFF767FD4FF44F
:100BC0000070ADF8080003208DF80A0018208DF899
:100BD0000B0002A91A48FFF707FC4FF48060ADF83C
:100BE000080004208DF80B0002A91548FFF7FCFB54
:100BF0004FF4E13003900020ADF81000ADF8120082
:100C0000ADF81400ADF818000C20ADF8160003A9DB
:100C10000C4800F091F8012240F22551094800F0FB
:100C200065F825208DF8040001208DF8070001A843
:100C3000FFF78CFC0121034800F015F807B000BD58
:100C4000000801400038014010B50022002340F6A2
:100C50006A14A14200D100BF0A1201249440A3B239
:100C6000DC43048010BD21B1828942F400528281AC
:100C700004E082894DF6FF731A4082817047024674
:100C80000020B1F5007F00D100BF13880B400BB1ED
:100C9000012000E00020704770B5024600240023C8
:100CA0000025002040F66A16B14200D100BFC1F312
:100CB000421501F01F03012606FA03F3012D02D1AC
:100CC0009689334006E0022D02D1168A334001E0B6
:100CD000968A33400C12012606FA04F41688344032
:100CE00013B10CB1012000E0002070BDF0B5034647
:100CF000002400260025002040F66A17B94200D1E2
:100D000000BF1846C1F3421401F01F06012707FA7D
:100D100006F5012C01D10C3004E0022C01D1103079
:100D200000E014301AB107682F43076002E007683B
:100D3000AF430760F0BD00002DE9F04786B00546DF
:100D40000E460024A24600BFA1460027B08900B18C
:100D500000BF2F462C8A4CF6FF700440F0880443F5
:100D60002C82AC894EF6F3100440B08831890843D8
:100D7000718908430443AC81AC8A4FF6FF400440BC
:100D8000B0890443AC8201A8FFF790FC1F4887425A
:100D900002D1DDF810A001E0DDF80CA0A88900F474
:100DA000004040B10AEBCA0000EB0A10316849006C
:100DB000B0FBF1F807E00AEBCA0000EB0A1031685B
:100DC0008900B0FBF1F86420B8FBF0F004012009C1
:100DD000642101FB1089A88900F4004040B1322051
:100DE00000EBC900B0FBF1F000F00700044308E09D
:100DF000322000EB09106421B0FBF1F000F00F008D
:100E000004432C8106B0BDE8F087000000380140A3
:100E100001468888C0F308007047C1F30802828049
:100E2000704700BFFEE700000FB4054B10B503A9E3
:100E3000044A029800F017F810BC5DF814FB00009B
:100E40003D0F00081400002002E008C8121F08C16E
:100E5000002AFAD170477047002001E001C1121F3B
:100E6000002AFBD170472DE9F84F994692468846F3
:100E70000546002706E025280AD051464A469047F5
:100E80006D1C7F1C28780028F5D13846BDE8F88F06
:100E9000002315F8011F18462E2915D115F8011F3A
:100EA00004232A290DD06FF02F022978A1F13004F4
:100EB000092C09D800EB800002EB400008446D1CAF
:100EC000F3E758F8040B6D1C2A78002ADDD0632A5A
:100ED00007D0732A0FD0104651464A4690477F1CD0
:100EE0002AE018F8042B8DF8002000218DF801105D
:100EF0006E46012103E058F8046B4FF0FF315A07AA
:100F00004FF0000401D409E0641C84420BDA8C42E7
:100F1000FADB325D002AF7D105E0641C8C42FCDB71
:100F2000305D0028F9D1274404E016F8010B514642
:100F30004A469047641EF8D26D1CA3E770B504467C
:100F40000D46E1B20548FFF768FF00BF40210348A6
:100F5000FFF795FE0128F9D1204670BD0038014009
:100F6000FFF7D6FAFFF785F9FFF722FE00F00AF83F
:100F7000012220210248FFF7C2FA00BFFEE700006D
:100F8000000C01401FB501210C20FFF77FFB012160
:100F90000846FFF77BFB4FF48060ADF80C0048205B
:100FA0008DF80F0003A91748FFF71EFA4FF40060F1
:100FB000ADF80C0048208DF80F0003A91248FFF788
:100FC00013FA4FF44060019000208DF808000C20C7
:100FD0008DF8090001208DF80A0001A8FFF79AF9A1
:100FE0000A210120FFF7E0F90B210020FFF7DCF9CF
:100FF00028208DF8000001208DF803006846FFF7D7
:10100000A5FA1FBD000C0140000801402C1000088B
:101010000000002018000000480E000844100008DE
:101020001800002000040000580E00080000000016
:10103000010203040102030406070809020406086A
:0410400000000000AC
:0400000508000101ED
:00000001FF
